:1000000099C00000AEC00000ACC00000AAC0000053
:10001000A8C00000A6C00000A4C00000A2C000004C
:10002000A0C000009EC000009CC000009AC000005C
:1000300098C0000096C0000094C0000092C000006C
:1000400090C000008EC000008CC000008AC000007C
:1000500088C0000086C0000084C0000082C000008C
:1000600080C000007EC000007CC000007AC000009C
:1000700078C0000076C0000074C0000072C00000AC
:1000800070C000006EC000006CC000006AC00000BC
:10009000EDC0000066C0000064C0000062C0000047
:1000A00060C000005EC000005CC000005AC00000DC
:1000B00058C0000056C0000054C0000052C00000EC
:1000C00050C000004EC000004CC000004AC00000FC
:1000D00048C0000046C0000044C0000042C000000C
:1000E00040C000003EC000003CC000003AC000001C
:1000F00038C0000036C0000034C0000032C000002C
:1001000030C000002EC000002CC000002AC000003B
:1001100028C0000026C0000024C0000022C000004B
:1001200020C000001EC000001CC000001AC000005B
:1001300018C0000011241FBECFEFD1E8DEBFCDBF35
:1001400000E00CBF12E0A0E0B2E0E2E4F3E000E087
:100150000BBF02C007900D92A435B107D9F702D0AA
:10016000EEC04ECF84B1806684B98DB188608DB900
:1001700085B1806285B985B1806485B98EB18860AA
:100180008EB980E096E933D080E092E049D0C0E0BB
:10019000D0E065D0813321F486E092E041D0F9CF00
:1001A000823321F483E292E03BD0F3CF8333C9F46E
:1001B00095B180E4892785B901C02196C03187E2D5
:1001C000D807DCF395B180E4892785B901C0219671
:1001D000C03187E2D807DCF395B180E4892785B97F
:1001E000D8CF8823B1F280E492E01AD0D2CF9C011C
:1001F00040E050E060E271EA87E090E062D0215098
:1002000031093093CD002093CC0088ED8093C90054
:1002100008959091C80095FFFCCF8093CE0008957B
:100220000F931F93CF93DF938C01C0E0D0E008C001
:10023000F801EC0FFD1F8081882361F0EADF219631
:10024000F80101900020E9F73197E01BF10BCE1780
:10025000DF0770F3DF91CF911F910F910895809187
:10026000C8008823E4F78091CE0008951F920F9272
:100270000FB60F9211240BB60F922F933F934F930B
:100280005F936F937F938F939F93AF93BF93EF93FE
:10029000FF93E5DF813011F481E3BBDFFF91EF9144
:1002A000BF91AF919F918F917F916F915F914F918E
:1002B0003F912F910F900BBE0F900FBE0F901F908C
:1002C0001895052E97FB16F400940FD057FD05D016
:1002D00014D007FC02D046F408C0509540953095E4
:1002E00021953F4F4F4F5F4F0895909580957095A2
:1002F00061957F4F8F4F9F4F0895A1E21A2EAA1B41
:10030000BB1BFD010DC0AA1FBB1FEE1FFF1FA217C5
:10031000B307E407F50720F0A21BB30BE40BF50BC2
:10032000661F771F881F991F1A9469F7609570954B
:10033000809590959B01AC01BD01CF010895F89483
:02034000FFCFED
:100342004D454E553A006162636465666768696A45
:100352006B6C6D6E6F707172737475767778797A73
:100362000D0A004142434445464748494A4B4C4DD9
:100372004E4F505152535455565758595A0D0A0020
:10038200756E6B6E6F776E2073657175656E6365E2
:040392000D0A000050
:00000001FF
