:1000000099C00000B7C00000B5C00000B3C0000038
:10001000B1C00000AFC00000ADC00000ABC0000028
:10002000A9C00000A7C00000A5C00000A3C0000038
:10003000A1C0000055C200009DC000009BC0000090
:1000400099C0000097C0000095C0000093C0000058
:1000500091C000008FC000008DC000008BC0000068
:1000600089C0000087C0000085C0000083C0000078
:1000700081C000007FC000007DC000007BC0000088
:1000800079C0000077C0000075C0000073C0000098
:10009000DCC20000BEC200006DC000006BC00000EA
:1000A00069C0000067C000000AC2000063C0000011
:1000B00061C000005FC000005DC000005BC00000C8
:1000C00059C0000057C0000055C0000053C00000D8
:1000D00051C000004FC000004DC000004BC00000E8
:1000E00049C0000047C0000045C0000043C00000F8
:1000F00041C000003FC000003DC000003BC0000008
:1001000039C0000037C0000035C0000033C0000017
:1001100031C000002FC000002DC000002BC0000027
:1001200029C0000027C0000025C0000023C0000037
:1001300021C0000011241FBECFEFD1E8DEBFCDBF2C
:1001400000E00CBF12E0A0E0B2E0E0E9FCE100E07A
:100150000BBF02C007900D92A039B107D9F720E27A
:10016000A0E9B2E001C01D92A032B207E1F76BD165
:100170000C94460E45CF08953EC20895CF93DF9369
:100180001F92CDB7DEB7698370E0FB01EE0FFF1F52
:10019000E60FF71FEE0FFF1FEF56FD4F2081318155
:1001A0009281873061F0893091F4EEEFF8E0AE0192
:1001B0004F5F5F4F5387428781E0848708C0EEEF2F
:1001C000F8E041E252E05387428782E08487EEEF15
:1001D000F8E0368325839783908782E081878BEBD5
:1001E00090E096878587CF0122D30F90DF91CF9142
:1001F0000895CF93DF93482F90919002292F30E0FC
:10020000F901EE0FFF1FE20FF31FEE0FFF1FEF5676
:10021000FD4F8581882331F0842F9F5F909390025A
:10022000E8DF1CC0892F90E0F901EE0FFF1FDF010E
:10023000A20FB31FAA0FBB1FAF56BD4F11969C93C1
:100240008E9312964C93129714961C921497EB016E
:10025000488113964C931397FD011582DF91CF913E
:100260000895EF92FF920F931F93CF93DF938C012A
:10027000DC011796ED90FC901897F701818184308E
:1002800009F45CC020F4823008F04AC071C08630A6
:10029000C9F148F1873009F06BC0D8018D919C916C
:1002A000FC01EE0FFF1FE80FF91FEE0FFF1FEF56C7
:1002B000FD4F81E08483F7018081882309F45FC0CA
:1002C000C0E0D0E0D7011396ED91FC911497EC0FAC
:1002D000FD1F808169D12196F701808190E0C817C8
:1002E000D90784F34CC0D8018D919C91FC01EE0F8D
:1002F000FF1FE80FF91FEE0FFF1FEF56FD4F81E0C4
:1003000084833DC0F80180819181FC01EE0FFF1FC5
:10031000E80FF91FEE0FFF1FEF56FD4F14822FC09D
:10032000809190028F5F80939002B701D80114965C
:100330008C915FDF682F89E021DF21C0F801808187
:100340009181FC01EE0FFF1FE80FF91FEE0FFF1F59
:10035000EF56FD4F81E0858386E292E04CD1D801D3
:100360008D919C9148D1F801608181E007DF07C041
:1003700081E492E040D1D70111968C9115D18AE0A9
:1003800013D184E592E037D1F80183810DD1D801F2
:1003900012968C9109D18AE007D181E692E02BD1A7
:1003A000F801818101D1D8018C91FED08AE0FCD086
:1003B00080E792E020D1F7018181F6D08AE0F4D085
:1003C0008FE792E018D1D80119968C91EDD08AE090
:1003D000EBD086E892E00FD1F8018185882391F077
:1003E000C0E0D0E0D7011396ED91FC911497EC0F8B
:1003F000FD1F8081D9D02196F801818590E0C81732
:10040000D90784F38AE0D0D081E0DF91CF911F91AA
:100410000F91FF90EF90089580E090E0C7D180E8C1
:1004200090E0CAD18FE00E94B50B81E00E94B10B31
:1004300061E371E081E0C6D181E998E09093090918
:100440008093080908950E94860C60E076E980E0B8
:1004500090E055D0C1E00E948D0C4ED180910F09E3
:100460008111F9CFD9DFC0930F09F5CF14BE0FB6B4
:10047000F894A89580916000886180936000109244
:1004800060000FBEE1E6F0E080E88083108278949F
:1004900001C008951092F71F80E197E29093A900A0
:1004A0008093A800E1EAF0E088E0808380818260A8
:1004B0008083E2E7F0E080818260808308951F926C
:1004C0000F920FB60F9211248F938091F71F8F5FB9
:1004D0008093F71F8F910F900FBE0F901F9018956C
:1004E0001F920F920FB60F9211248F9381E0809389
:1004F00010098F910F900FBE0F901F901895DC017F
:10050000CB01880F991FAA1FBB1F880F991FAA1F15
:10051000BB1F9C01AD01220F331F441F551F220F2B
:10052000331F441F551F60E074E284EF90E00E9487
:100530008B0DBA01A9014150510961097109BB270D
:10054000A72F962F852F8093CD004093CC0082E07B
:100550008093C80088E98093C90086E08093CA0030
:10056000EFE3FCE08EEA9AE09187808780E991E0F2
:1005700095838483178216821182108213821282DD
:10058000E4EAFAE023E139E0318720879583848328
:1005900017821682118210821382128281E0809368
:1005A0001209109211090895CF93DF93EFE3FCE055
:1005B000268137816481758126173707C9F0C08588
:1005C000D18542815381DA011196B383A283FE0162
:1005D000E40FF51F80836A177B0721F41092420C09
:1005E0001092410C2F5F3F4F3093460C2093450CE7
:1005F000DF91CF910895CF93DF93EC018881882319
:1006000029F02196D1DF89918111FCCFDF91CF9123
:1006100008951F920F920FB60F9211240BB60F92EE
:100620008F93EF93FF9381E080931209E9ECF0E060
:1006300080818F7D8083FF91EF918F910F900BBE12
:100640000F900FBE0F901F9018951F920F920FB62C
:100650000F9211240BB60F922F933F934F935F93FA
:100660006F937F938F939F93AF93BF93EF93FF937A
:100670008091C8002091CE008C7159F5E4EAFAE02F
:1006800046815781848195814817590711F140852A
:10069000518582819381BC016F5F7F4F7383628339
:1006A000DA01A80FB91F2C932281338184819581AF
:1006B0002817390721F41092A70A1092A60AE4EA33
:1006C000FAE08681978101969783868381E0809303
:1006D0001109FF91EF91BF91AF919F918F917F9100
:1006E0006F915F914F913F912F910F900BBE0F90A3
:1006F0000FBE0F901F9018958091450C9091460C5D
:10070000009769F120911209222349F1EFE3FCE0FF
:100710006085718520813181A9014F5F5F4F5183D1
:100720004083DB01A20FB31F2C91648175814617B2
:10073000570721F41092400C10923F0C01979093B0
:10074000460C8093450C9FB7F8942093CE00E9ECBB
:10075000F0E0808180628083109212099FBF2FB7E2
:10076000F89490911109109211094091AA0A5091A0
:10077000AB0A2FBF992311F0CA01FECC0895E8EF10
:10078000FFE1148215821182108217A216A2EEEFE9
:10079000FFE18EE190E211921192E817F907D9F783
:1007A0001BD639D30BD13ED090C108959093F91F39
:1007B0008093F81FF0C708959093FB1F8093FA1F52
:1007C000D8C70895E82FF0E0EE0FFF1FE250F04E7B
:1007D00071836083089566D3D6D64DC00895E091A5
:1007E000490CF0914A0C3097D9F02281338182175D
:1007F000930789F405C0228133812817390759F4FA
:10080000DC01AD57BF4F2C91278713962C91208B7D
:1008100022E0248305C00190F081E02D309759F744
:1008200011C1089510924A0C1092490C0895FC01D0
:100830001482178613821282A8EFBFE196968D91DB
:100840009C919797019697969C938E9396978091FB
:10085000490C90914A0C009739F411821082F09360
:100860004A0CE093490C089591838083F0934A0CDD
:10087000E093490C08950F931F93CF93DF93E0917A
:10088000490CF0914A0C309709F493C0EF018C8128
:10089000882321F0823009F466C085C09AD08C018B
:1008A000009721F482E08C838F8783C09B838A83A7
:1008B00081E08C83F801E957FF4F8FEE93E091833D
:1008C00080833197898582FB882780F98083998589
:1008D000D8011B968C911B9790FB80F91B968C93EB
:1008E0001B97998593FB992790F990FB82F91B96AA
:1008F0008C931B97E8EFFFE184818F5F84831C96C4
:100900008C931C97808191811E969C938E931D974A
:100910008D819E8150969C938E931F978885982FEA
:100920009F7051968C915197807F892B51968C9313
:1009300051979F819295907F8F70892B51968C93C0
:10094000F801EF57FF4F4C8550E06A857B85808129
:1009500091810E94020EF80191818C85890F81831B
:10096000C8015DD526C0EC17FD0741F48081918157
:1009700090934A0C8093490C0AC0FC0180819181BC
:100980008C179D07D1F78881998191838083E8EF47
:10099000FFE186A197A1019797A386A3ED85FE8528
:1009A000CE01199506C00990D881C02D209709F075
:1009B0006ECFDF91CF911F910F910895EBE4FCE092
:1009C00089E59CE11082E757FF4FE817F907D1F757
:1009D000089580914B0C882359F0E4EDFCE069E523
:1009E0007CE181E090E0AC012081211122C002C0B5
:1009F00040E050E069E8649F9001659F300D11244C
:100A0000C901855B934FFC0111926A95E9F740E1BA
:100A1000FC014183EF57FF4F235A334F318320832B
:100A2000E8EFFFE126A137A12F5F3F4F37A326A3B1
:100A300008950196E757FF4FE617F707A1F680E004
:100A400090E00895FC011082E8EFFFE186A197A1F4
:100A5000019797A386A30895009741F0FC01E757FB
:100A6000FF4F8CE1E935F80718F012C0EBE4FCE029
:100A70008081882321F00FC0808181110FC0E7574A
:100A8000FF4F8CE1E935F807B8F380E090E0089576
:100A900080E090E008958E2F9F2F08958E2F9F2F36
:100AA0000895FC01DC01AD57BF4F1C92A8EFBFE1D8
:100AB00014969C9114979F5F14969C931497948717
:100AC0008D919C91968785870895AAE5BCE180E089
:100AD00090E04FEF5FEF11965C934E93FC01EE0FA9
:100AE000FF1FEE0FFF1FEE0FFF1FE81BF90BE75A6A
:100AF000F34E20812E7F208314961C92149701962A
:100B000017968436910539F708950F931F93CF9365
:100B1000DF93EAE5FCE120E030E0062F10E04081C1
:100B2000518148175907B1F4D901AA0FBB1FAA0F69
:100B3000BB1FAA0FBB1FA21BB30BA75AB34E4C91EE
:100B400046954170C42F40E0D42FC017D10711F44F
:100B5000CD0108C02F5F3F4F379624363105F9F697
:100B600080E090E0DF91CF911F910F910895A0E078
:100B7000B0E0E9E5FCE1808180FD0DC0858188233E
:100B800081F0109739F015969C911597891718F4F4
:100B9000DF0101C0DF0137968FE1E531F80759F732
:100BA000FD0180818D708063808380E88583CF0123
:100BB0000895FC01808180FD05C08FEF9FEF928337
:100BC000818315820895A1DF009721F0FC018381C4
:100BD000948108958FEF9FEF089597DF009709F0B4
:100BE000E8CF08950F931F93CF93DF93FC01018506
:100BF000128511232CF48585968508171907E1F5D0
:100C0000858196810196C1F1EF0160E08585968529
:100C10007CDFFC01892BA1F08F8198850196F9F486
:100C20002091F81F3091F91F8F859889281739076F
:100C3000B1F41483038380818F70806380830AC042
:100C400096DFFC018D859E859283818389859A85B7
:100C500094838383CD57DF4F888186830DC0838142
:100C6000948108171907B1F39681DE01AD57BF4F84
:100C70008C919817F0F2EECFDF91CF911F910F91E9
:100C80000895CF93DF93FC01878590898F3F2FEFE5
:100C90009207D9F1EF01638563FB662760F935DFC1
:100CA000DC01892B91F18C9180FD2FC0FE01ED5765
:100CB000FF4F8081811119C08C918F7080638C935C
:100CC00015968C9115978F5F15968C938F3FE9F44D
:100CD000EEE5FCE12AE13FE1808186958F5F80832C
:100CE0003796E217F307C1F710C09C91892F8295C0
:100CF0008F70815F8F70282F2295207F9F70922B9D
:100D00009C93811102C0CD0154DFDF91CF910895F2
:100D1000CF93DF93FC01878590898F3F2FEF920758
:100D200029F48FEF9FEF908787830EC0238522FFE2
:100D300003C09087878308C0EF01638563FB662744
:100D400060F941DF98878F83DF91CF910895AF924B
:100D5000BF92CF92DF92EF92FF921F93CF93DF93D8
:100D6000EC011B8513FB112710F9CF84D888612F64
:100D7000C60129DF019659F0FE01E957FF4F1182A4
:100D80001082319782E08083CE0149D322C0AD84A6
:100D9000BE841FDE7C010097D1F083DEF7018181E4
:100DA0008A5F8183E957FF4F11821082F701B08A71
:100DB000A786EF57FF4F0190F081E02D81E08083FF
:100DC000B282A182D482C3821583C70128D3CE0107
:100DD00039DEDF91CF911F91FF90EF90DF90CF90A0
:100DE000BF90AF90089580E00895BC01E7E2FFE175
:100DF00029E53FE140E051E09081992319F09150BD
:100E00009083452F3596E217F307B1F7442311F08D
:100E1000CB010BC60895E7E2FFE189E59FE110826F
:100E20003596E817F907D9F7E5E1FFE184E690E0A8
:100E3000A0E0B0E086839783A087B187128685EF14
:100E400096E09487838763EF76E080E0BBCC0895DB
:100E5000CF93DF93DC01ED91FC911197218128382C
:100E6000F1F420812F7D2134D1F412962C91203180
:100E7000B0F0EC01AEDD009791F020E2FC012083A0
:100E80002A8121832B81ED57FF4F20832C813196BE
:100E900020834A8150E0688179810296B3D6DF9140
:100EA000CF9108952F923F924F925F926F927F92CF
:100EB0008F929F92AF92BF92CF92DF92EF92FF926A
:100EC0000F931F93CF93DF93CDB7DEB72C970FB659
:100ED000F894DEBF0FBECDBF00E010E00F2EF4E2AD
:100EE000BF2EF02D0F2EF8EFEF2EFFE1FF2EF02D8D
:100EF000552453946894AA24A4F86894772473F82A
:100F00006894662462F8312C212C0F2EFFE14F2EBD
:100F1000F02DCC24C394D12CDAC1D8018C9182322B
:100F200009F405C118F4803241F0D1C1833209F4CB
:100F3000C9C1843209F4C9C1CAC1F801B08283852C
:100F4000982F9A7009F0C3C1258136812F3F3F4FFA
:100F500091F4D8011F968D919C915097F7012081B3
:100F600031812817390719F0019609F0B0C1E2E282
:100F7000D801EC93ACC1D8011F962D913C915097AC
:100F80002F3F3F4F11F480FDA2C1F7012081318135
:100F9000D8011D968D919C911E972817390709F449
:100FA00096C1C8011FDEE3E2FFE180E090E0832C00
:100FB000922C9C014481442309F474C0D8011D96ED
:100FC0006D917C911E97408151816417750709F0DE
:100FD0006AC01C968C911C97F901EE0FFF1FEE0F53
:100FE000FF1FE20FF31FED5DF04E9281981B9830CA
:100FF00008F03EC0F901EE0FFF1FEE0FFF1FE20FDA
:10100000F31FED5DF04E8381482F50E0092E02C0A2
:10101000559547950A94E2F740FF17C0F7012081E4
:10102000318117968D919C9118972817390709F0EF
:101030004EC11B966C911B9763FB662760F91F9648
:101040008D919C915097C9DD42C1F901EE0FFF1FB0
:10105000EE0FFF1F2E0F3F1FF901ED5DF04E9601C1
:1010600002C0220F331F9A95E2F7822B838336C189
:10107000F901EE0FFF1FEE0FFF1F2E0F3F1FF901AB
:10108000ED5DF04E82838381282F30E09195A90198
:1010900002C0440F551F9A95E2F7CA01816083830D
:1010A00044821CC14F01019635968A30910509F0A2
:1010B00080CF8114910409F40AC1D8011D968D9145
:1010C0009C911E97F401918380831C968C9182835E
:1010D0005382448285E19FE1A8D400C1D7012D91BC
:1010E0003C91F801878590892817390781F043855D
:1010F00042FD0BC0C801E1D1D7012D913C91F8010F
:10110000878590892817390711F0019621F4E2E2CA
:10111000D801EC93DCC0D80117968D919C9118975B
:101120008217930709F0D3C0E3E2EC93D0C010928A
:10113000221FD80151968C91519782958F70E82F7C
:10114000F0E0EE0FFF1FE250F04E0190F081E02D35
:10115000309709F460C01D962D913C911E973A83FB
:1011600029831F964D915C9150975C834B835196D8
:101170009C9151979F709D838E83AF57BF4F8D91E8
:101180009C9199878887B8016E5F7F4F861B970B6C
:10119000D80111969C911197981B9A87AD57BF4F14
:1011A0008C918B8711968C918C87D8011B969C9182
:1011B000692F637092FD02C080E001C080E2862B3F
:1011C00093FD02C090E001C090E4892B4F3F5F4F38
:1011D00011F090E001C0962D892BD80119964D9100
:1011E0005C911A972417350711F090E001C0972DF4
:1011F000892B8F83D80115962D913C9116972F3FFF
:101200003F4F11F090E001C09A2D892B8F83CE01C2
:101210000196199501C080E0F801938590FF80E068
:10122000D80117962D913C9118972F3F3F4F69F4A5
:10123000F70140815181D8011F962D913C91509723
:101240004217530711F493FF852DF801258136814C
:101250002F3F3F4FA1F1D7012D913C912F3F3F4FA1
:1012600071F1882361F1B5DB4C01009741F119DC84
:10127000F40181818D5F8183E957FF4F11821082D4
:10128000D8011B968C911B9786958170F4019385EC
:1012900080FB91F993871D968D919C911E97908B61
:1012A0008787EF57FF4F0190F081E02D10828091EA
:1012B000221F82831C968C918183C401B0D0D801F7
:1012C000BC9205C0C80143DD02C0C801BBDBC80138
:1012D000C3DB8C01892B09F020CE07C0F801878180
:1012E0009085019609F008CFF9CE2C960FB6F894A8
:1012F000DEBF0FBECDBFDF91CF911F910F91FF9049
:10130000EF90DF90CF90BF90AF909F908F907F90A5
:101310006F905F904F903F902F900895EF92FF92C3
:101320000F931F93CF937C0110E080E090E001E0E9
:10133000C3E113C0FC012081213179F4EC57FF4F48
:10134000208131812150310931832083232B21F4E5
:10135000FC01C083102F01C0102F7EDB009751F7D6
:10136000112311F0C70161D3CF911F910F91FF900D
:10137000EF900895EF92FF920F931F93CF93DF9317
:101380007C0110E080E090E001E0D7E1C0E116C010
:10139000FC012081263191F4EC57FF4F20813181EF
:1013A0002150310931832083232B39F4FC01D08370
:1013B000ED57FF4FC083102F01C0102F4DDB00975A
:1013C00039F7112311F0C70130D3DF91CF911F916D
:1013D0000F91FF90EF9008951092701F10926F1F61
:1013E000E2E6FFE182E390E0A0E0B0E0868397834D
:1013F000A087B18712868AEB99E094878387E5E519
:10140000FFE18AE090E0A0E0B0E086839783A087C8
:10141000B18712868EE899E0948783870895CF93E9
:10142000DF93EC01FC01EA57FF4F808181FF03C08D
:1014300092E1988302C092E19883FE01ED57FF4F3D
:10144000108280FF05C02FEF3FEF3E832D8306C043
:101450002091FA1F3091FB1F3E832D83857019F474
:10146000CE0156DC04C08F85988998878F83E8EF7A
:10147000FFE1808191819A87898785818F5F85834C
:101480008C838F819885019669F481E498E89B8329
:101490008A83AAD3CC57DF4F877099270196998307
:1014A000888308C081E698E89B838A83CC57DF4F06
:1014B00019821882DF91CF9108950F931F93CF93D4
:1014C000DF938C0186DAEC01892BA9F182E1888314
:1014D000F80181818983FE01ED57FF4F108284D38B
:1014E000FE01EC57FF4F8770992701969183808307
:1014F000339611821082F801418150E0B8016E5F8D
:101500007F4FCE0102967ED381E498E89B838A8345
:101510008FEF9FEF98878F83F801858196819E8357
:101520008D83E8EFFFE1808191819A8789878581AA
:101530008F5F85838C83DF91CF911F910F910895E9
:10154000E0916F1FF091701F813021F048F08230E0
:1015500019F004C080E205C081E203C081E001C04F
:1015600080E0DF01AD57BF4F8C9385E180831092FF
:10157000701F10926F1FE8EFFFE186A197A10197FE
:1015800097A386A308959F92AF92BF92CF92DF92C6
:10159000EF92FF920F931F93CF93DF93C0E0D0E0C1
:1015A0000F2EF4E1AF2EF02D08EF1FE10F2EF7E123
:1015B000DF2EF02D0F2EF6E19F2EF02D0F2EF9E2EB
:1015C000EF2EF12CF02D0F2EF3E1CF2EF02D0F2E5C
:1015D000F1E1BF2EF02D60C088818331C1F018F495
:1015E000823139F059C0853149F1873109F445C05C
:1015F00053C0FE01EC57FF4F80819181892B29F068
:10160000B88285E59FE111D247C0C88245C080916C
:101610006F1F9091701F892B09F03EC0D093701FEF
:10162000C0936F1FA8826981CE010296CBD0F801CA
:1016300086A197A1019697A386A32EC0FE01ED5720
:10164000FF4F8081811117C02D853E85F801808173
:1016500091812817390769F48B8580FF0AC0988229
:10166000FE01EC57FF4FF182E08282E69FE1DDD17F
:1016700013C0D88211C0D8820FC0CE0102DBFE0198
:10168000E957FF4F0190F081E02D309719F4CE011A
:10169000D9D902C0CE011995CE01DED9EC01892B32
:1016A00009F09ACFDF91CF911F910F91FF90EF90AA
:1016B000DF90CF90BF90AF909F9008958091711F61
:1016C000982F9F70E4E5F1E08081807F892B8083F3
:1016D0008091711F882329F08091721F809353019C
:1016E00008958091721F982F9F71E8E4F1E0808146
:1016F000807E892B8083089593E090934201E1E4FA
:10170000F1E090819F719830E1F780934201E1E42C
:10171000F1E090819F718913FCCF089588E0ECDFA0
:101720008FEF80934F018091731F882311F086E122
:10173000E3CF0895E9E3F1E0808181608083109236
:10174000731F1092711F81E08093F41F88E0D4DF33
:101750008BEE80935601ECE4F1E080818068808319
:1017600008958093731FDACF08958093721FA6CFD8
:101770000895CF93DF931F921F92CDB7DEB79A8360
:101780008983809362018A81809363010F900F9017
:10179000DF91CF910895CF93DF931F921F92CDB722
:1017A000DEB79A838983809360018A818093610187
:1017B00099818A81890F80936D010F900F90DF913D
:1017C000CF9108951F93CF93DF93182FD92FC62F52
:1017D00089E192DF8FEF80934F0182E08C0F80933D
:1017E0008001CC2371F0A12FBD2FC1506C2F70E070
:1017F0006E577E4FE1E8F1E08D918193E617F70790
:10180000D9F783E08093F41F82E080934201DF9157
:10181000CF911F9108951F93CF93DF9300D01F9214
:101820001F92CDB7DEB78091F41F823009F465C0F6
:1018300080914F0183FF3EC0A0917B016A2F70E031
:10184000AB014F5F5F4F80E090E020E0FC01E0588B
:10185000FE4F3081FC01EC58F04E30832F5F822F19
:1018600090E08417950794F384E79FE19A83898336
:10187000A250AB83FB01EC58F04E80818C838091A9
:1018800047018A558D83CE010196E2DAE1E4F1E069
:1018900080818F718631E1F7EFE4F1E0808188602B
:1018A0008083ECE4F1E080818F77808380818068A1
:1018B000808323C080914F0186FF1FC0809141012A
:1018C0008F718931A9F41091420112951695177004
:1018D00049F0133021F0153021F013E003C011E07E
:1018E00001C012E01BDF81E08093F41F812F28DE0E
:1018F000EFE4F1E08081806480830F900F900F907F
:101900000F900F90DF91CF911F9108950E943602A2
:101910006DD010DF0C94BF0308957DDF0E94EB03B0
:101920008FC008950F931F93CF93DF93EC018091A5
:10193000F51F9091F61F009709F445C04E815F8115
:1019400068857985FC0102811381248135814017E6
:1019500051076207730760F0DC0117C00281138131
:1019600024813581401751076207730768F403C06B
:10197000FC01A0E0B0E0041B150B260B370B028323
:101980001383248335830AC0DF01401B510B620B94
:10199000730BED91FC911197309701F74A835B83AC
:1019A0006C837D83109741F08D919C911197998361
:1019B0008883CD93DC9315C099838883D093F61FD9
:1019C000C093F51F0EC0198218828E819F81A88551
:1019D000B9858A839B83AC83BD83D093F61FC09364
:1019E000F51FDF91CF911F910F9108951092F61F6F
:1019F0001092F51F0895E091F51FF091F61F3097B2
:101A000071F0E817F90721F40CC08E179F0759F001
:101A10000190F081E02D3097C1F780E0089580E0DB
:101A2000089581E0089581E00895CF93DF93EC015C
:101A3000E2DF811102C0CE0175DFDF91CF91089501
:101A4000CF92DF92EF92FF92CF93DF938091F71FB7
:101A5000882309F459C08FB7F894C090F71F1092EB
:101A6000F71F8FBFD12CE12CF12CCC0CDD1CEE1C10
:101A7000FF1CD701C601880F991FAA1FBB1F880F23
:101A8000991FAA1FBB1FC80ED91EEA1EFB1EC091BC
:101A9000F51FD091F61F2097B9F18A819B81AC8107
:101AA000BD81C816D906EA06FB0610F1C81AD90A84
:101AB000EA0AFB0A888199819093F61F8093F51FAB
:101AC0008A85813011F4CE012DDFEB85FC85CE01B6
:101AD0001995C091F51FD091F61F2097A9F08A8122
:101AE0009B81AC81BD81C816D906EA06FB06F0F6DB
:101AF0008A819B81AC81BD818C199D09AE09BF098A
:101B00008A839B83AC83BD83DF91CF91FF90EF905D
:101B1000DF90CF900895A1E21A2EAA1BBB1BFD01F6
:101B20000DC0AA1FBB1FEE1FFF1FA217B307E407BC
:101B3000F50720F0A21BB30BE40BF50B661F771F14
:101B4000881F991F1A9469F76095709580959095F4
:101B50009B01AC01BD01CF0108958F929F92AF927E
:101B6000BF92CF92DF92EF92FF92CF93DF93EC017F
:101B7000688179818A819B81611571058105910553
:101B800021F464E279ED8BE597E02DE133EF41E05C
:101B900050E041D049015A019B01AC01A7EAB1E4F0
:101BA00056D06B017C01ACEEB4EFA50194015BD083
:101BB000DC01CB018C0D9D1DAE1DBF1DB7FF03C009
:101BC0000197A109B04888839983AA83BB839F7733
:101BD000DF91CF91FF90EF90DF90CF90BF90AF90CB
:101BE0009F908F900895B9CF80E092E0B6CFA0E0AB
:101BF000B0E08093000290930102A0930202B093A0
:101C000003020895FB01DC0102C001900D924150D6
:101C10005040D8F70895052E97FB16F400940FD086
:101C200057FD05D078DF07FC02D046F408C0509578
:101C30004095309521953F4F4F4F5F4F08959095B8
:101C40008095709561957F4F8F4F9F4F08950FD06E
:101C5000A59F900DB49F900DA49F800D911D112400
:101C60000895B7FFF4CFF3DF821B930B0895A29F73
:101C7000B001B39FC001A39F700D811D1124911D60
:101C8000B29F700D811D1124911D0895F894FFCF0E
:101C9000010000005359534C4F473A2074696D6559
:101CA00072206973206265696E672072657365745E
:101CB00000646174610041636365707465642063EE
:101CC0006C69656E74206F6E20616464722E3A20B8
:101CD00000556E6B6E6F776E206D73672074797030
:101CE000653A2000546F20616464726573733A2012
:101CF0000046726F6D20616464726573733A2000F0
:101D00004D65737361676520747970653A2000537F
:101D1000697A653A20005061796C6F61643A2000FD
:00000001FF
