S01700004763634170706C69636174696F6E312E737265635B
S11300001AC1000030C100002EC100002CC1000044
S11300102AC1000028C1000026C1000024C100003C
S113002022C1000020C100001EC100001CC100004C
S11300301AC1000018C1000016C1000014C100005C
S113004012C1000080C400000EC100000CC10000F9
S11300500AC1000008C1000006C1000004C100007C
S113006002C1000000C10000FEC00000FCC000008E
S1130070FAC00000F8C00000F6C00000F4C00000A0
S1130080F2C00000F0C00000EEC00000ECC00000B0
S1130090EAC00000E8C00000E6C00000E4C00000C0
S11300A0E2C00000E0C00000DEC00000DCC00000D0
S11300B0DAC00000D8C00000D6C00000D4C00000E0
S11300C0D2C00000D0C00000CEC00000CCC00000F0
S11300D0CAC00000C8C00000C6C00000C4C0000000
S11300E0C2C00000C0C00000BEC00000BCC0000010
S11300F0BAC00000B8C00000B6C00000B4C0000020
S1130100B2C00000B0C00000AEC00000ACC000002F
S1130110AAC00000A8C00000A6C00000A4C000003F
S1130120A2C00000A0C000009EC000009CC000004F
S11301309AC000006E616E00696E660000407A101D
S1130140F35A00A0724E18090010A5D4E80000E884
S11301507648170000E40B54020000CA9A3B0000E2
S113016000E1F505000080969800000040420F0071
S11301700000A08601000000102700000000E80332
S1130180000000006400000000000A0000000000FD
S11301900100000000002C76D888DC674F0823DFBC
S11301A0C1DFAE59E1B1B796E5E3E453C63AE6518F
S11301B0997696E8E6C28426EB898C9B62ED407CB6
S11301C06FFCEFBC9C9F40F2BAA56FA5F490055A52
S11301D02AF75C936B6CF9676DC11BFCE0E40D4777
S11301E0FEF520E6B500D0ED902E0300943577059A
S11301F00080841E080000204E0A000000C80C3352
S11302003333330F986E12831141EF8D2114893BE0
S1130210E65516CFFEE6DB18D1844B381BF77C1D60
S1130220901DA4BBE424203284725E228100C9F1B3
S113023024ECA1E53D2711241FBECFEFD1E8DEBF9A
S1130240CDBF00E00CBF13E0A0E0B2E0ECEDF7E1BD
S113025000E00BBF02C007900D92AA34B107D9F792
S1130260A7D00C94EC0BCCCECF93DF931F921F92AC
S1130270CDB7DEB789836A838CE790E0FC011082F6
S11302808AE790E0FC0110828AE790E02AE730E0F8
S1130290F90130812981232BFC0120838CE790E034
S11302A02CE730E0F9012081422F2A81222F30E00F
S11302B00024369527950794369527950794322F71
S11302C0202D242BFC0120838AE790E02AE730E0EC
S11302D0F90120812068FC01208300008BE790E075
S11302E0FC0180818823D4F700008BE790E0FC01B7
S11302F08081882F90E080729927892BB1F30000C8
S11303000F900F90DF91CF910895CF93DF9300D09A
S11303101F92CDB7DEB79C838B831A8219828CE738
S113032090E02CE730E0F9012081207EFC0120835D
S11303308BE790E02BE730E0F9012081277FFC0177
S113034020838CE790E02CE730E0F90130812B81A9
S1130350232BFC0120838AE790E02AE730E0F901AF
S113036020812064FC01208300008AE790E0FC01E6
S11303708081882F90E080749927892BB1F788E7D2
S113038090E0FC01808191819A8389838AE790E0DF
S11303902AE730E0F90120812061FC012083898172
S11303A09A810F900F900F900F90DF91CF91089545
S11303B0CF93DF93CDB7DEB7A8970FB6F894DEBF1F
S11303C00FBECDBF1A8219821B8280E096E9EAD261
S11303D08DE290E02DE230E0F90120812F7DFC01D7
S11303E020838AE690E02AE630E0F9012081286043
S11303F0FC0120838AE690E02AE630E0F9012081BE
S11304002B7FFC0120838DE390E02DE330E0F901A4
S113041020812062FC012083789484E290E024E22D
S113042030E0F90120812067FC0120838DE290E017
S11304302DE230E0F90120812860FC01208381E075
S113044092E0FFD289E092E0FCD286E192E0F9D218
S113045083E292E0F6D282E392E0F3D281E492E086
S1130460F0D289E592E0EDD20BD38C8383E792E05E
S1130470E8D28C81CBD28DE0C9D28AE0C7D28C81FC
S1130480882F90E082339105E1F0833391055CF489
S11304908D32910509F485C08133910571F08B97F4
S11304A009F472C08BC08533910509F461C08437A7
S11304B0910589F1C49749F081C083E892E0C1D2E3
S11304C081C080EA92E0BDD27DC062E070E085E048
S11304D090E0CADE83E090E018DF9E838D838E81F6
S11304E08F938D818F938DEB92E0892F8F938DEB7A
S11304F092E08F93CE010B96292F2F938F930E9416
S1130500600B0F900F900F900F900F900F90CE01F3
S11305100B9697D257C0D3D056D0DC01CB018F8332
S11305209887A987BA878A858F9389858F938885C9
S11305308F938F818F9386ED92E0892F8F9386ED31
S113054092E08F93CE010B96292F2F938F930E94C5
S1130550600B8DB79EB708960FB6F894DEBF0FBE3A
S1130560CDBF8BED92E06DD2CE010B966AD22AC03C
S1130570998181E08927882321F081E0898346D10C
S113058021C019822DD11EC0809100028B3028F029
S1130590809100028A5080930002809100027FD1F2
S11305A011C080910002843628F480910002865F95
S11305B0809300028091000272D104C08CEE92E01C
S11305C040D2000051CFCF93DF9300D01F921F92EF
S11305D0CDB7DEB78AD086E9A9D0F2D0883139F018
S11305E08FEF92E02ED280E090E0DC015EC080E0EC
S11305F09DD0E6D089838981883239F08AE093E0FE
S113060020D280E090E0DC0150C083D06ED0D8D0FE
S1130610883039F085E193E014D280E090E0DC0189
S113062044C087E983D0CCD0803439F082E293E0AF
S113063008D280E090E0DC0138C094D08A83C0D036
S1130640803539F08FE293E0FCD180E090E0DC016A
S11306502CC09FD08B83B4D0883539F08CE393E0E1
S1130660F0D180E090E0DC0120C053D08A81882F53
S113067090E0382F22278B81882F90E0822B932BB8
S11306809D838C838C819D81CC01A0E0B0E0BC0172
S1130690CD0170D2DC01CB0120E030E040E853E42E
S11306A0BC01CD01FFD1DC01CB01BC01CD010F9018
S11306B00F900F900F900F90DF91CF910895CF93EB
S11306C0DF93CDB7DEB789EB90E0FC01108288EBB5
S11306D090E022E0FC0120838CEB90E024E0FC011C
S11306E020830000DF91CF910895CF93DF93CDB79E
S11306F0DEB78CEB90E024EAFC01208300008CEB55
S113070090E0FC0180818823D4F70000DF91CF9131
S11307100895CF93DF93CDB7DEB78CEB90E024E957
S1130720FC0120830000DF91CF910895CF93DF93E4
S11307301F92CDB7DEB789838BEB90E02981FC0152
S113074020838CEB90E024E8FC01208300008CEBF8
S113075090E0FC0180818823D4F700000F90DF91A2
S1130760CF910895CF93DF93CDB7DEB78CEB90E0B4
S113077024ECFC01208300008CEB90E0FC018081E0
S11307808823D4F78BEB90E0FC018081DF91CF913B
S11307900895CF93DF93CDB7DEB78CEB90E024E8D8
S11307A0FC01208300008CEB90E0FC018081882315
S11307B0D4F78BEB90E0FC018081DF91CF91089519
S11307C0CF93DF931F92CDB7DEB789EB90E0FC01A6
S11307D08081887F898389810F90DF91CF910895EB
S11307E0CF93DF93CDB7DEB7F89480E890E0FC01B7
S11307F0108281E890E0FC0110828FE690E0FC0119
S1130800108278940000DF91CF910895CF93DF9305
S11308101F921F92CDB7DEB780EA97E09A8389834F
S1130820F89480E890E0FC01108281E890E0FC01FB
S113083010828FE690E0FC01108288E890E0298124
S11308403A81FC013183208381E890E021E830E0A3
S1130850F90120812860FC01208381E890E021E8EF
S113086030E0F90120812860FC0120838FE690E0CC
S11308702FE630E0F90120812260FC01208380E82A
S113088090E020E830E0F90120812064FC0120831D
S1130890789400000F900F90DF91CF910895CF933B
S11308A0DF931F921F92CDB7DEB78A83F89480EB53
S11308B090E0FC01108281EB90E0FC01108280E763
S11308C090E0FC0110828A81882F90E02FEF289F0E
S11308D0A001299F500D112424E630E0CA01B9017A
S11308E060D5CB01898383EB90E02981FC012083CF
S11308F080EB90E020EB30E0F90120812360FC01E3
S1130900208381EB90E021EB30E0F9012081286025
S1130910FC01208380E790E020E730E0F9012081AA
S11309202160FC01208380EB90E020EB30E0F901B2
S113093020812068FC012083789400000F900F90A0
S1130940DF91CF9108951F920F9200905F000F9254
S1130950112400905B000F922F933F938F939F93EA
S1130960EF93FF93CF93DF93CDB7DEB785E290E0AB
S113097025E230E0F901308120E22327FC012083C5
S11309800000DF91CF91FF91EF919F918F913F9163
S11309902F910F9000925B000F9000925F000F90D8
S11309A01F901895CF93DF9300D01F92CDB7DEB779
S11309B09C838B838B819C819C0140E050E080E28E
S11309C091EAA7E0B0E0BC01CD01FED4DA01C9018F
S11309D001979A8389838DEC90E029813A81232FB2
S11309E0330F330BFC0120838CEC90E02981FC0154
S11309F0208389EC90E028E1FC01208300000F9023
S1130A000F900F900F90DF91CF910895CF93DF93C4
S1130A101F92CDB7DEB78983000088EC90E0FC011B
S1130A208081882F90E080729927892BB1F38EEC16
S1130A3090E02981FC01208300000F90DF91CF9189
S1130A400895CF93DF931F921F92CDB7DEB79A8399
S1130A5089830AC089819A81FC018081D7DF8981D9
S1130A609A8101969A83898389819A81FC01808184
S1130A70882381F700000F900F90DF91CF910895A4
S1130A80CF93DF93CDB7DEB7000088EC90E0FC0194
S1130A9080818823D4F78EEC90E0FC018081DF9183
S1130AA0CF9108950CD0BAC0B2D040F0A9D030F0A4
S1130AB021F45F3F19F09BC05111E4C09EC0BFD028
S1130AC098F39923C9F35523B1F3951B550BBB2711
S1130AD0AA2762177307840738F09F5F5F4F220FBE
S1130AE0331F441FAA1FA9F333D00E2E3AF0E0E8B7
S1130AF030D091505040E695001CCAF729D0FE2F03
S1130B0027D0660F771F881FBB1F26173707480794
S1130B10AB07B0E809F0BB0B802DBF01FF2793584A
S1130B205F4F2AF09E3F510568F061C0ABC05F3F44
S1130B30ECF3983EDCF3869577956795B795F79532
S1130B409F5FC9F7880F911D9695879597F908952A
S1130B50E1E0660F771F881FBB1F621773078407C6
S1130B60BA0720F0621B730B840BBA0BEE1F88F7D5
S1130B70E0950895E89409C097FB3EF4909580951C
S1130B80709561957F4F8F4F9F4F9923A9F0F92F4F
S1130B9096E9BB279395F695879577956795B795CD
S1130BA0F111F8CFFAF4BB0F11F460FF1BC06F5FB3
S1130BB07F4F8F4F9F4F16C0882311F096E911C0C5
S1130BC0772321F09EE8872F762F05C0662371F0E6
S1130BD096E8862F70E060E02AF09A95660F771FFA
S1130BE0881FDAF7880F9695879597F9089597F9EE
S1130BF09F6780E870E060E008959FEF80EC0895BF
S1130C0000240A94161617061806090608950024E7
S1130C100A9412161306140605060895092E039461
S1130C20000C11F4882352F0BB0F40F4BF2B11F4D5
S1130C3060FF04C06F5F7F4F8F4F9F4F089557FD34
S1130C409058440F551F59F05F3F71F04795880F36
S1130C5097FB991F61F09F3F79F0879508951216CD
S1130C6013061406551FF2CF4695F1DF08C0161679
S1130C7017061806991FF1CF86957105610508942A
S1130C800895E894BB2766277727CB0197F9089541
S1130C902F923F924F925F926F927F928F929F9288
S1130CA0AF92BF92CF92DF92EF92FF920F931F9376
S1130CB0CF93DF93CDB7DEB760970FB6F894DEBF5E
S1130CC00FBECDBF7C011B016A01FC011782168295
S1130CD0838181FF2AC39E012F5F3F4F3901F701B2
S1130CE09381F10193FD859193FF81911F018823E5
S1130CF009F417C3853239F493FD859193FF8191EB
S1130D001F01853231F4B70190E09ED4560165018C
S1130D10E6CF10E0512C912CFFE1F915D8F08B327D
S1130D2079F038F4803279F08332A1F4F92DF0614E
S1130D302EC08D3261F0803369F4292D21602DC0DD
S1130D40392D3260932E892D8460982E2AC0E92D86
S1130D50E86015C097FC2DC020ED280F2A3088F4D8
S1130D6096FE06C03AE0139F200D1124122F19C0DD
S1130D708AE0589E200D1124522EE92DE0629E2E09
S1130D8010C08E3231F496FCCCC2F92DF0649F2E43
S1130D9008C08C3621F4292D2068922E02C0883692
S1130DA041F4F10193FD859193FF81911F0181111C
S1130DB0B3CF9BEB980F933020F4992D9061805E14
S1130DC007C09BE9980F933008F059C1992D9F7E75
S1130DD096FF16E09F73992E853619F49064992E28
S1130DE008C0863621F4392F3068932E02C01111C1
S1130DF0115097FE07C01C3350F444244394410E11
S1130E0027E00BC0183038F027E017E005C027E0D2
S1130E109CE3492E02C0212F412C560184E0A80EE8
S1130E20B11CF6016081718182819381042DA3013B
S1130E301DD36C01F981FC87F0FF02C0F3FF06C0EB
S1130E4091FC06C092FE06C000E205C00DE203C09C
S1130E500BE201C000E08C858C7019F0011143C2D3
S1130E6080C297FE10C04C0CFC85F4FF04C08A813C
S1130E70813309F44A94141474F528E0241578F5A0
S1130E8088E0482E2CC096FC2AC0812F90E08C1557
S1130E909D059CF03CEFC3163FEFD30674F0892DFB
S1130EA08068982E0AC0E2E0F0E0EC0FFD1FE10F2D
S1130EB0F11D8081803319F411501111F4CF97FE84
S1130EC00EC044244394410E812F90E0C816D906E5
S1130ED02CF41C1904C04424439401C010E097FE70
S1130EE006C01C141D0434F4C601019605C085E037
S1130EF090E002C081E090E001110196112331F0ED
S1130F00212F30E02F5F3F4F820F931F252D30E0BC
S1130F108217930714F4581A01C0512C892D897033
S1130F2041F4552031F0B70180E290E08DD35A941A
S1130F30F8CF002321F0B701802F90E085D393FCF4
S1130F4008C0552031F0B70180E390E07DD35A9476
S1130F50F8CF97FE4AC04601D7FE02C0812C912CDF
S1130F60C60188199909F301E80FF91FFE87ED8777
S1130F70960124193109388B2F87012F10E0119520
S1130F80019511093FEF8316930621F4B7018EE210
S1130F9090E05AD3C814D9044CF08F8598898815E9
S1130FA0990524F4ED85FE85818101C080E3F1E09B
S1130FB08F1A91082D853E852F5F3F4F3E872D87E1
S1130FC08016910624F0B70190E03ED3DBCFC8141D
S1130FD0D90441F49A81963320F4953319F43C856D
S1130FE034FF81E3B70190E048C08A81813319F06E
S1130FF09C859F7E9C87B70190E026D3111105C084
S113100094FC16C085E690E015C0B7018EE290E02E
S11310101BD31E5F82E001E0080FF301E80FF11D0E
S11310208081B70190E010D3802F0113F4CFE8CF73
S113103085E490E0B70108D3D7FC06C0C114D104FD
S113104041F4EC85E4FF05C0D194C194D1088DE24C
S113105001C08BE2B70190E0F7D280E32AE0C21628
S1131060D1042CF08F5FFAE0CF1AD108F7CFB70183
S113107090E0EAD2B701C601C096E6D249C18336F0
S113108031F0833779F0833509F052C01FC056011F
S113109032E0A30EB11CF6018081898301E010E0E7
S11310A0630111C05601F2E0AF0EB11CF601C0801D
S11310B0D18096FE03C0612F70E002C06FEF7FEF16
S11310C0C601B7D28C01F92DFF7713C0560122E077
S11310D0A20EB11CF601C080D18096FE03C0612F20
S11310E070E002C06FEF7FEFC60198D28C01F92D3A
S11310F0F0689F2EF3FD18C0852D90E0081719079E
S113110098F4B70180E290E09FD25A94F5CFF601AB
S113111097FC859197FE81916F01B70190E094D27D
S113112051105A94015011090115110581F7F0C0AD
S1131130843611F0893659F5560197FE09C024E02A
S1131140A20EB11CF60160817181828193810AC073
S1131150F2E0AF0EB11CF60160817181072E000C24
S1131160880B990BF92DFF769F2E97FF09C0909558
S11311708095709561957F4F8F4F9F4FF0689F2E9C
S11311802AE030E0A301CAD2C82EC6183EC0092DF9
S1131190853721F40F7E2AE030E01DC0097F8F36A9
S11311A091F018F4883559F0BCC0803719F08837AD
S11311B011F0B7C0006104FF09C0046007C094FEC9
S11311C008C0066006C028E030E005C020E130E039
S11311D002C020E132E0560107FF09C084E0A80EF6
S11311E0B11CF601608171818281938108C0F2E0B3
S11311F0AF0EB11CF6016081718180E090E0A30123
S11312008DD2C82EC6180F77902E96FE0BC0092DCE
S11312100E7FC11650F494FE0AC092FC08C0092D3A
S11312200E7E05C0DC2C092D03C0DC2C01C0D12EA0
S113123004FF0DC0FE01EC0DF11D8081803311F41B
S1131240097E09C002FF06C0D394D39404C0802F42
S1131250867809F0D39403FD10C000FF06C01C2D4E
S1131260D51478F4150D1D190CC0D51450F4B7011C
S113127080E290E0E9D1D394F8CFD51410F45D184E
S113128001C0512C04FF0FC0B70180E390E0DCD112
S113129002FF16C001FD03C088E790E002C088E5A4
S11312A090E0B7010CC0802F867851F001FF02C096
S11312B08BE201C080E207FD8DE2B70190E0C4D16A
S11312C0C11630F4B70180E390E0BED11150F8CFDD
S11312D0CA94F301EC0DF11D8081B70190E0B4D103
S11312E0C110F6CF15C0F4E0F51550F584E0581A96
S11312F093FE1EC0011125C02C8523FF27C004E3E3
S113130011E0392D3071932EF8018491811121C09F
S1131310552009F4FCCCB70180E290E095D15A94B1
S1131320F7CFF7018681978123C08FEF9FEF20C00D
S1131330B70180E290E088D15A945110F9CFDACF06
S1131340512CB701802F90E07FD1D6CF08E311E074
S1131350D8CF91108052B70190E076D10F5F1F4F24
S1131360D3CF23E0251510F483E0C1CF512CC4CF93
S113137060960FB6F894DEBF0FBECDBFDF91CF915C
S11313801F910F91FF90EF90DF90CF90BF90AF909F
S11313909F908F907F906F905F904F903F902F9091
S11313A0089597FB072E16F4009406D077FD08D015
S11313B027D007FC05D03EF4909581959F4F089562
S11313C0709561957F4F0895052E97FB16F4009450
S11313D00FD057FD05D028D007FC02D046F408C032
S11313E050954095309521953F4F4F4F5F4F08954D
S11313F090958095709561957F4F8F4F9F4F08957D
S1131400AA1BBB1B51E107C0AA1FBB1FA617B70726
S113141010F0A61BB70B881F991F5A95A9F7809542
S11314209095BC01CD010895A1E21A2EAA1BBB1B05
S1131430FD010DC0AA1FBB1FEE1FFF1FA217B3079C
S1131440E407F50720F0A21BB30BE40BF50B661FB2
S1131450771F881F991F1A9469F760957095809576
S113146090959B01AC01BD01CF010895283008F08F
S113147027E03327DA01990F311D87FD916000962B
S11314806105710539F432602E5F3D9330E32A958E
S1131490E1F708959F3F30F080387105610509F048
S11314A03C5F3C5F3D93913008F08068911DDF9371
S11314B0CF931F930F93FF92EF92192F987F9695D6
S11314C0E92F96959695E90FFF27EA56FE4F99273F
S11314D03327EE24FF24A701E7010590089407941D
S11314E028F4360FE71EF81E491F511D660F771F9B
S11314F0881F991F0694A1F70590079428F4E70E16
S1131500F81E491F561FC11D770F881F991F661F9C
S11315100694A1F70590079428F4F80E491F561F66
S1131520C71FD11D880F991F661F771F0694A1F747
S11315300590079420F4490F561FC71FD81F990F11
S1131540661F771F881F0694A9F78491109517705A
S113155041F0D695C79557954795F794E7941A9512
S1131560C1F7ECE3F1E0689415901591359165911C
S1131570959105907FE27395E118F10A430B560BA0
S1131580C90BD009C0F7E10CF11E431F561FC91F38
S1131590D01D7EF4703311F48A95E6CFE89401509F
S11315A030F0080F0AF40027021708F4202F2395BF
S11315B0022F7A3328F079E37D932A95E9F710C056
S11315C07D932A9589F6069497956795379517958F
S11315D01794E118F10A430B560BC90BD00998F084
S11315E023957E9173957A3308F070E37C932013EE
S11315F0B8F77E9170617D9330F0839571E37D93AC
S113160070E32A95E1F71124EF90FF900F911F9159
S1131610CF91DF91992787FD90950895FC0105905E
S1131620615070400110D8F7809590958E0F9F1FE0
S11316300895FC016150704001900110D8F7809525
S113164090958E0F9F1F08950F931F93CF93DF9351
S1131650FB01238121FD03C08FEF9FEF2CC022FFEC
S113166016C046815781248135814217530744F4BB
S1131670A081B1819D012F5F3F4F318320838C93E3
S1131680268137812F5F3F4F3783268314C08B0118
S1131690EC01FB010084F185E02D1995892BE1F61D
S11316A0D80116968D919C911797019617969C9345
S11316B08E931697CE01DF91CF911F910F910895CC
S11316C00F931F93CF93DF93CDB7DEB72E970FB64B
S11316D0F894DEBF0FBECDBF0E891F8986E08C83D0
S11316E01A8309838FEF9FE79E838D83AE01465E45
S11316F05F4F688D798DCE010196CADAEF81F88546
S1131700E00FF11F10822E960FB6F894DEBF0FBEC5
S1131710CDBFDF91CF911F910F910895FA01AA27B0
S1131720283051F1203181F1E8946F936E7F6E5F20
S11317307F4F8F4F9F4FAF4FB1E03ED0B4E03CD0CE
S1131740670F781F891F9A1FA11D680F791F8A1FB1
S1131750911DA11D6A0F711D811D911DA11D20D018
S113176009F468943F912AE0269F11243019305DD2
S11317703193DEF6CF010895462F4770405D4193C3
S1131780B3E00FD0C9F7F6CF462F4F70405D4A3310
S113179018F0495D31FD4052419302D0A9F7EACFD8
S11317A0B4E0A6959795879577956795BA95C9F707
S11317B000976105710508959B01AC010A2E0694FA
S11317C05795479537952795BA95C9F7620F731FB3
S10F17D0841F951FA01D0895F894FFCFFE
S11317DC0A4D454E553A0D0A00313A206162656353
S11317EC6564610D0A00323A204142454345444147
S11317FC0D0A00343A2054696D657230204F4E0D39
S113180C0A00353A2054696D657231204F4E0D0A29
S113181C002B3A204C454433206272696768746E1D
S113182C6573732075700D0A002D3A204C454433B2
S113183C206272696768746E65737320646F776E67
S113184C0D0A00596F757220696E70757420697376
S113185C3A20006162636465666768696A6B6C6DE3
S113186C6E6F707172737475767778797A0D0A006D
S113187C4142434445464748494A4B4C4D4E4F50D0
S113188C5152535455565758595A0D0A006C69679E
S113189C687420696E74656E736974792069733A1F
S11318AC2025640D0A0025660D0A0054656D7065CB
S11318BC7261747572652069733A2000756E6B6E73
S11318CC6F776E2073657175656E63650D0A0045DF
S11318DC72726F722031380A0D004572726F722069
S11318EC32380A0D00204572726F722030380A0D9E
S11318FC2000204572726F722034300A0D200020B3
S113190C4572726F722035300A0D200020457272B8
S10D191C6F722035380A0D20000018
S9030000FC
