S01700004763634170706C69636174696F6E312E737265635B
S113000099C00000AEC00000ACC00000AAC000004F
S1130010A8C00000A6C00000A4C00000A2C0000048
S1130020A0C000009EC000009CC000009AC0000058
S113003098C0000060C1000094C0000092C000009D
S113004090C0000046C100008CC000008AC00000BF
S113005088C0000086C0000084C0000082C0000088
S113006080C000007EC000007CC000007AC0000098
S113007078C0000076C0000074C0000072C00000A8
S113008070C000006EC000006CC000006AC00000B8
S113009068C0000066C0000064C0000062C00000C8
S11300A060C000005EC000005CC000005AC00000D8
S11300B058C0000056C0000054C0000052C00000E8
S11300C050C000004EC000004CC000004AC00000F8
S11300D048C0000046C0000044C0000042C0000008
S11300E040C000003EC000003CC000003AC0000018
S11300F038C0000036C0000034C0000032C0000028
S113010030C000002EC000002CC000002AC0000037
S113011028C0000026C0000024C0000022C0000047
S113012020C000001EC000001CC000001AC0000057
S113013018C0000011241FBECFEFD1E8DEBFCDBF31
S113014000E00CBF12E0A0E0B2E0E6E5F4E000E07D
S11301500BBF02C007900D92A23CB107D9F702D0A1
S113016078C14ECF84B1806784B98DB188608DB970
S113017080E096E9CAD081E092E0E0D089E092E0A4
S1130180DDD086E192E0DAD083E292E0D7D082E358
S113019092E0D4D081E492E0D1D089E592E0CED04F
S11301A0C0E0EBD0813359F028F48B32C1F08D32AA
S11301B009F12BC0823339F0853349F026C083E737
S11301C092E0BCD0EECF80E992E0B8D0EACFC11182
S11301D003C033D0C1E0E5CF27D0C0E0E2CF8091A7
S11301E000028B3018F08A50809300028091000244
S11301F046D0D7CF80910002843618F4865F80936E
S11302000002809100023BD0CCCF90E0DC010D9045
S11302100020E9F7119724E1EDEAF2E001900D9254
S11302202A95E1F78BD0BDCFF894109280001092FC
S1130230810010926F0078940895CF93DF93F8941F
S1130240A0E8B0E01C92E1E8F0E01082CFE6D0E054
S1130250188280EA97E090938900809388008081D7
S113026088608083808185608083888182608883C0
S11302708C9180648C937894DF91CF910895CF937F
S1130280DF93F894E0EBF0E0108221EB30E0D90149
S11302901C92C0E7D0E01882BFEF8B9FC0011124ED
S11302A064E670E071D06093B300808182608083E3
S11302B0808181608083D9018C9185608C93888151
S11302C0816088838081806880837894DF91CF9176
S11302D008951F920F920FB60F9211248F939F933C
S11302E095B180E2892785B99F918F910F900FBEB8
S11302F00F901F9018951F920F920FB60F92112412
S11303000F900FBE0F901F9018959C0140E050E095
S113031060E271EA87E090E04AD0215031093093DD
S1130320CD002093CC0088ED8093C900089590916E
S1130330C80095FFFCCF8093CE0008950F931F93C0
S1130340CF93DF938C01C0E0D0E008C0F801EC0F3C
S1130350FD1F8081882361F0EADF2196F801019076
S11303600020E9F73197E01BF10BCE17DF0770F39C
S1130370DF91CF911F910F9108958091C800882338
S1130380E4F78091CE00089597FB072E16F40094AD
S113039006D077FD08D027D007FC05D03EF4909511
S11303A081959F4F0895709561957F4F0895052E0F
S11303B097FB16F400940FD057FD05D028D007FC06
S11303C002D046F408C050954095309521953F4F92
S11303D04F4F5F4F089590958095709561957F4F2D
S11303E08F4F9F4F0895AA1BBB1B51E107C0AA1F43
S11303F0BB1FA617B70710F0A61BB70B881F991FC2
S11304005A95A9F780959095BC01CD010895A1E274
S11304101A2EAA1BBB1BFD010DC0AA1FBB1FEE1F7A
S1130420FF1FA217B307E407F50720F0A21BB30BC5
S1130430E40BF50B661F771F881F991F1A9469F741
S113044060957095809590959B01AC01BD01CF019D
S10904500895F894FFCFAB
S11304560A4D454E553A0D0A00313A2061626563EC
S11304666564610D0A00323A2041424543454441E0
S11304760D0A00343A2054696D657230204F4E0DD2
S11304860A00353A2054696D657231204F4E0D0AC3
S1130496002B3A204C454433206272696768746EB7
S11304A66573732075700D0A002D3A204C4544334C
S11304B6206272696768746E65737320646F776E01
S11304C60D0A006162636465666768696A6B6C6DD0
S11304D66E6F707172737475767778797A0D0A0017
S11304E64142434445464748494A4B4C4D4E4F507A
S11304F65152535455565758595A0D0A0020756E81
S11305066B6E6F776E2073657175656E63650D0A24
S10505160000DF
S9030000FC
